{
  "contractName": "Forex",
  "abi": [
    {
      "inputs": [],
      "payable": false,
      "stateMutability": "nonpayable",
      "type": "constructor"
    },
    {
      "constant": true,
      "inputs": [],
      "name": "owner",
      "outputs": [
        {
          "internalType": "address",
          "name": "",
          "type": "address"
        }
      ],
      "payable": false,
      "stateMutability": "view",
      "type": "function"
    },
    {
      "constant": false,
      "inputs": [
        {
          "internalType": "address",
          "name": "user",
          "type": "address"
        }
      ],
      "name": "authorize",
      "outputs": [],
      "payable": false,
      "stateMutability": "nonpayable",
      "type": "function"
    },
    {
      "constant": false,
      "inputs": [
        {
          "internalType": "string",
          "name": "name",
          "type": "string"
        },
        {
          "components": [
            {
              "internalType": "string",
              "name": "rate",
              "type": "string"
            },
            {
              "internalType": "string",
              "name": "timestamp",
              "type": "string"
            }
          ],
          "internalType": "struct Forex.Pair",
          "name": "pair",
          "type": "tuple"
        }
      ],
      "name": "set",
      "outputs": [],
      "payable": false,
      "stateMutability": "nonpayable",
      "type": "function"
    },
    {
      "constant": true,
      "inputs": [
        {
          "internalType": "string",
          "name": "name",
          "type": "string"
        }
      ],
      "name": "get",
      "outputs": [
        {
          "components": [
            {
              "internalType": "string",
              "name": "rate",
              "type": "string"
            },
            {
              "internalType": "string",
              "name": "timestamp",
              "type": "string"
            }
          ],
          "internalType": "struct Forex.Pair",
          "name": "",
          "type": "tuple"
        }
      ],
      "payable": false,
      "stateMutability": "view",
      "type": "function"
    }
  ],
  "bytecode": "0x608060405234801561001057600080fd5b50336000806101000a81548173ffffffffffffffffffffffffffffffffffffffff021916908373ffffffffffffffffffffffffffffffffffffffff1602179055506109ab806100606000396000f3fe608060405234801561001057600080fd5b506004361061004c5760003560e01c8063693ec85e14610051578063794e2631146100815780638da5cb5b1461009d578063b6a5d7de146100bb575b600080fd5b61006b6004803603610066919081019061063e565b6100d7565b60405161007891906107ed565b60405180910390f35b61009b6004803603610096919081019061067f565b610274565b005b6100a5610348565b6040516100b291906107b0565b60405180910390f35b6100d560048036036100d09190810190610615565b61036d565b005b6100df61041d565b6000826040516020016100f291906107cb565b60405160208183030381529060405280519060200120905060026000828152602001908152602001600020604051806040016040529081600082018054600181600116156101000203166002900480601f0160208091040260200160405190810160405280929190818152602001828054600181600116156101000203166002900480156101c15780601f10610196576101008083540402835291602001916101c1565b820191906000526020600020905b8154815290600101906020018083116101a457829003601f168201915b50505050508152602001600182018054600181600116156101000203166002900480601f0160208091040260200160405190810160405280929190818152602001828054600181600116156101000203166002900480156102635780601f1061023857610100808354040283529160200191610263565b820191906000526020600020905b81548152906001019060200180831161024657829003601f168201915b505050505081525050915050919050565b600160003373ffffffffffffffffffffffffffffffffffffffff1673ffffffffffffffffffffffffffffffffffffffff16815260200190815260200160002060009054906101000a900460ff1615610344576000826040516020016102d991906107cb565b60405160208183030381529060405280519060200120905081600260008381526020019081526020016000206000820151816000019080519060200190610321929190610437565b50602082015181600101908051906020019061033e929190610437565b50905050505b5050565b6000809054906101000a900473ffffffffffffffffffffffffffffffffffffffff1681565b6000809054906101000a900473ffffffffffffffffffffffffffffffffffffffff1673ffffffffffffffffffffffffffffffffffffffff163373ffffffffffffffffffffffffffffffffffffffff16141561041a5760018060008373ffffffffffffffffffffffffffffffffffffffff1673ffffffffffffffffffffffffffffffffffffffff16815260200190815260200160002060006101000a81548160ff0219169083151502179055505b50565b604051806040016040528060608152602001606081525090565b828054600181600116156101000203166002900490600052602060002090601f016020900481019282601f1061047857805160ff19168380011785556104a6565b828001600101855582156104a6579182015b828111156104a557825182559160200191906001019061048a565b5b5090506104b391906104b7565b5090565b6104d991905b808211156104d55760008160009055506001016104bd565b5090565b90565b6000813590506104eb81610951565b92915050565b600082601f83011261050257600080fd5b81356105156105108261083c565b61080f565b9150808252602083016020830185838301111561053157600080fd5b61053c8382846108fe565b50505092915050565b600082601f83011261055657600080fd5b813561056961056482610868565b61080f565b9150808252602083016020830185838301111561058557600080fd5b6105908382846108fe565b50505092915050565b6000604082840312156105ab57600080fd5b6105b5604061080f565b9050600082013567ffffffffffffffff8111156105d157600080fd5b6105dd848285016104f1565b600083015250602082013567ffffffffffffffff8111156105fd57600080fd5b610609848285016104f1565b60208301525092915050565b60006020828403121561062757600080fd5b6000610635848285016104dc565b91505092915050565b60006020828403121561065057600080fd5b600082013567ffffffffffffffff81111561066a57600080fd5b61067684828501610545565b91505092915050565b6000806040838503121561069257600080fd5b600083013567ffffffffffffffff8111156106ac57600080fd5b6106b885828601610545565b925050602083013567ffffffffffffffff8111156106d557600080fd5b6106e185828601610599565b9150509250929050565b6106f4816108cc565b82525050565b60006107058261089f565b61070f81856108bb565b935061071f81856020860161090d565b61072881610940565b840191505092915050565b600061073e82610894565b61074881856108aa565b935061075881856020860161090d565b61076181610940565b840191505092915050565b600060408301600083015184820360008601526107898282610733565b915050602083015184820360208601526107a38282610733565b9150508091505092915050565b60006020820190506107c560008301846106eb565b92915050565b600060208201905081810360008301526107e581846106fa565b905092915050565b60006020820190508181036000830152610807818461076c565b905092915050565b6000604051905081810181811067ffffffffffffffff8211171561083257600080fd5b8060405250919050565b600067ffffffffffffffff82111561085357600080fd5b601f19601f8301169050602081019050919050565b600067ffffffffffffffff82111561087f57600080fd5b601f19601f8301169050602081019050919050565b600081519050919050565b600081519050919050565b600082825260208201905092915050565b600082825260208201905092915050565b60006108d7826108de565b9050919050565b600073ffffffffffffffffffffffffffffffffffffffff82169050919050565b82818337600083830152505050565b60005b8381101561092b578082015181840152602081019050610910565b8381111561093a576000848401525b50505050565b6000601f19601f8301169050919050565b61095a816108cc565b811461096557600080fd5b5056fea365627a7a723158208f9beebc533527a98f59710994ef61d1d580c3ff0ed59955f8ad7990552c95446c6578706572696d656e74616cf564736f6c63430005100040",
  "source": "// SPDX-License-Identifier: MIT\npragma solidity >=0.4.21 <0.7.0;\n\npragma experimental ABIEncoderV2;\n\ncontract Forex {\n\n    address public owner;\n\n    struct Pair {\n        string rate;\n        string timestamp;\n    }\n\n    mapping(address => bool) users;\n    mapping(bytes32 => Pair) pairs;\n\n\n    constructor() public {\n        owner = msg.sender;\n    }\n\n    modifier restricted() {\n        if (msg.sender == owner) _;\n    }\n\n    modifier authorized() {\n        if (users[msg.sender]) _;\n    }\n\n    function authorize(address user) public restricted {\n        users[user] = true;\n    }\n\n    function set(string memory name, Pair memory pair) public authorized {\n\n        bytes32 nameHash = keccak256(abi.encode(name));\n        pairs[nameHash] = pair;\n    }\n\n    function get(string memory name) public view returns (Pair memory) {\n\n        bytes32 nameHash = keccak256(abi.encode(name));\n        return pairs[nameHash];\n    }\n}\n",
  "sourcePath": "/home/arsalen/Desktop/forex/eth-forex-dapp/contracts/Forex.sol",
  "compiler": {
    "name": "solc",
    "version": "0.5.16+commit.9c3226ce.Emscripten.clang"
  },
  "schemaVersion": "3.2.2",
  "updatedAt": "2020-08-07T00:43:56.991Z",
  "devdoc": {
    "methods": {}
  },
  "userdoc": {
    "methods": {}
  }
}