{
  "contractName": "Forex",
  "abi": [
    {
      "constant": true,
      "inputs": [],
      "name": "owner",
      "outputs": [
        {
          "name": "",
          "type": "address"
        }
      ],
      "payable": false,
      "stateMutability": "view",
      "type": "function",
      "signature": "0x8da5cb5b"
    },
    {
      "inputs": [],
      "payable": false,
      "stateMutability": "nonpayable",
      "type": "constructor",
      "signature": "constructor"
    },
    {
      "constant": false,
      "inputs": [
        {
          "name": "user",
          "type": "address"
        }
      ],
      "name": "authorize",
      "outputs": [],
      "payable": false,
      "stateMutability": "nonpayable",
      "type": "function",
      "signature": "0xb6a5d7de"
    },
    {
      "constant": false,
      "inputs": [
        {
          "name": "name",
          "type": "string"
        },
        {
          "components": [
            {
              "name": "rate",
              "type": "string"
            },
            {
              "name": "timestamp",
              "type": "string"
            }
          ],
          "name": "pair",
          "type": "tuple"
        }
      ],
      "name": "set",
      "outputs": [],
      "payable": false,
      "stateMutability": "nonpayable",
      "type": "function",
      "signature": "0x794e2631"
    },
    {
      "constant": true,
      "inputs": [
        {
          "name": "name",
          "type": "string"
        }
      ],
      "name": "get",
      "outputs": [
        {
          "components": [
            {
              "name": "rate",
              "type": "string"
            },
            {
              "name": "timestamp",
              "type": "string"
            }
          ],
          "name": "",
          "type": "tuple"
        }
      ],
      "payable": false,
      "stateMutability": "view",
      "type": "function",
      "signature": "0x693ec85e"
    }
  ],
  "bytecode": "0x608060405234801561001057600080fd5b50336000806101000a81548173ffffffffffffffffffffffffffffffffffffffff021916908373ffffffffffffffffffffffffffffffffffffffff1602179055506109c2806100606000396000f3fe608060405260043610610062576000357c0100000000000000000000000000000000000000000000000000000000900463ffffffff168063693ec85e14610067578063794e2631146100a45780638da5cb5b146100cd578063b6a5d7de146100f8575b600080fd5b34801561007357600080fd5b5061008e6004803603610089919081019061068b565b610121565b60405161009b9190610834565b60405180910390f35b3480156100b057600080fd5b506100cb60048036036100c691908101906106cc565b6102be565b005b3480156100d957600080fd5b506100e2610392565b6040516100ef91906107f7565b60405180910390f35b34801561010457600080fd5b5061011f600480360361011a9190810190610662565b6103b7565b005b610129610467565b60008260405160200161013c9190610812565b60405160208183030381529060405280519060200120905060026000828152602001908152602001600020604080519081016040529081600082018054600181600116156101000203166002900480601f01602080910402602001604051908101604052809291908181526020018280546001816001161561010002031660029004801561020b5780601f106101e05761010080835404028352916020019161020b565b820191906000526020600020905b8154815290600101906020018083116101ee57829003601f168201915b50505050508152602001600182018054600181600116156101000203166002900480601f0160208091040260200160405190810160405280929190818152602001828054600181600116156101000203166002900480156102ad5780601f10610282576101008083540402835291602001916102ad565b820191906000526020600020905b81548152906001019060200180831161029057829003601f168201915b505050505081525050915050919050565b600160003373ffffffffffffffffffffffffffffffffffffffff1673ffffffffffffffffffffffffffffffffffffffff16815260200190815260200160002060009054906101000a900460ff161561038e576000826040516020016103239190610812565b6040516020818303038152906040528051906020012090508160026000838152602001908152602001600020600082015181600001908051906020019061036b929190610481565b506020820151816001019080519060200190610388929190610481565b50905050505b5050565b6000809054906101000a900473ffffffffffffffffffffffffffffffffffffffff1681565b6000809054906101000a900473ffffffffffffffffffffffffffffffffffffffff1673ffffffffffffffffffffffffffffffffffffffff163373ffffffffffffffffffffffffffffffffffffffff1614156104645760018060008373ffffffffffffffffffffffffffffffffffffffff1673ffffffffffffffffffffffffffffffffffffffff16815260200190815260200160002060006101000a81548160ff0219169083151502179055505b50565b604080519081016040528060608152602001606081525090565b828054600181600116156101000203166002900490600052602060002090601f016020900481019282601f106104c257805160ff19168380011785556104f0565b828001600101855582156104f0579182015b828111156104ef5782518255916020019190600101906104d4565b5b5090506104fd9190610501565b5090565b61052391905b8082111561051f576000816000905550600101610507565b5090565b90565b60006105328235610923565b905092915050565b600082601f830112151561054d57600080fd5b813561056061055b82610883565b610856565b9150808252602083016020830185838301111561057c57600080fd5b610587838284610935565b50505092915050565b600082601f83011215156105a357600080fd5b81356105b66105b1826108af565b610856565b915080825260208301602083018583830111156105d257600080fd5b6105dd838284610935565b50505092915050565b6000604082840312156105f857600080fd5b6106026040610856565b9050600082013567ffffffffffffffff81111561061e57600080fd5b61062a8482850161053a565b600083015250602082013567ffffffffffffffff81111561064a57600080fd5b6106568482850161053a565b60208301525092915050565b60006020828403121561067457600080fd5b600061068284828501610526565b91505092915050565b60006020828403121561069d57600080fd5b600082013567ffffffffffffffff8111156106b757600080fd5b6106c384828501610590565b91505092915050565b600080604083850312156106df57600080fd5b600083013567ffffffffffffffff8111156106f957600080fd5b61070585828601610590565b925050602083013567ffffffffffffffff81111561072257600080fd5b61072e858286016105e6565b9150509250929050565b610741816108f1565b82525050565b6000610752826108e6565b808452610766816020860160208601610944565b61076f81610977565b602085010191505092915050565b6000610788826108db565b80845261079c816020860160208601610944565b6107a581610977565b602085010191505092915050565b600060408301600083015184820360008601526107d0828261077d565b915050602083015184820360208601526107ea828261077d565b9150508091505092915050565b600060208201905061080c6000830184610738565b92915050565b6000602082019050818103600083015261082c8184610747565b905092915050565b6000602082019050818103600083015261084e81846107b3565b905092915050565b6000604051905081810181811067ffffffffffffffff8211171561087957600080fd5b8060405250919050565b600067ffffffffffffffff82111561089a57600080fd5b601f19601f8301169050602081019050919050565b600067ffffffffffffffff8211156108c657600080fd5b601f19601f8301169050602081019050919050565b600081519050919050565b600081519050919050565b60006108fc82610903565b9050919050565b600073ffffffffffffffffffffffffffffffffffffffff82169050919050565b600061092e82610903565b9050919050565b82818337600083830152505050565b60005b83811015610962578082015181840152602081019050610947565b83811115610971576000848401525b50505050565b6000601f19601f830116905091905056fea265627a7a72305820db059f4768fc61d171b4ec51364406e093250aefa063bdedb7b5ee702c7477c86c6578706572696d656e74616cf50037",
  "source": "// SPDX-License-Identifier: MIT\npragma solidity >=0.4.21 <0.7.0;\n\npragma experimental ABIEncoderV2;\n\ncontract Forex {\n\n    address public owner;\n\n    struct Pair {\n        string rate;\n        string timestamp;\n    }\n\n    mapping(address => bool) users;\n    mapping(bytes32 => Pair) pairs;\n\n\n    constructor() public {\n        owner = msg.sender;\n    }\n\n    modifier restricted() {\n        if (msg.sender == owner) _;\n    }\n\n    modifier authorized() {\n        if (users[msg.sender]) _;\n    }\n\n    function authorize(address user) public restricted {\n        users[user] = true;\n    }\n\n    function set(string memory name, Pair memory pair) public authorized {\n\n        bytes32 nameHash = keccak256(abi.encode(name));\n        pairs[nameHash] = pair;\n    }\n\n    function get(string memory name) public view returns (Pair memory) {\n\n        bytes32 nameHash = keccak256(abi.encode(name));\n        return pairs[nameHash];\n    }\n}\n",
  "sourcePath": "/var/lib/jenkins/workspace/eth-sample-dapp_master/contracts/Forex.sol",
  "compiler": {
    "name": "solc",
    "version": "0.5.0+commit.1d4f565a.Emscripten.clang"
  },
  "schemaVersion": "3.0.2",
  "updatedAt": "2020-08-07T09:46:07.756Z",
  "devdoc": {
    "methods": {}
  },
  "userdoc": {
    "methods": {}
  }
}