{
  "contractName": "Forex",
  "abi": [
    {
      "inputs": [],
      "payable": false,
      "stateMutability": "nonpayable",
      "type": "constructor"
    },
    {
      "anonymous": false,
      "inputs": [
        {
          "indexed": false,
          "internalType": "address",
          "name": "_user",
          "type": "address"
        },
        {
          "indexed": false,
          "internalType": "bool",
          "name": "_authorized",
          "type": "bool"
        }
      ],
      "name": "Authorization",
      "type": "event"
    },
    {
      "anonymous": false,
      "inputs": [
        {
          "indexed": false,
          "internalType": "bytes32",
          "name": "_nameHash",
          "type": "bytes32"
        },
        {
          "components": [
            {
              "internalType": "string",
              "name": "rate",
              "type": "string"
            },
            {
              "internalType": "string",
              "name": "timestamp",
              "type": "string"
            }
          ],
          "indexed": false,
          "internalType": "struct Forex.Pair",
          "name": "_pair",
          "type": "tuple"
        }
      ],
      "name": "Settlement",
      "type": "event"
    },
    {
      "constant": true,
      "inputs": [],
      "name": "owner",
      "outputs": [
        {
          "internalType": "address",
          "name": "",
          "type": "address"
        }
      ],
      "payable": false,
      "stateMutability": "view",
      "type": "function"
    },
    {
      "constant": false,
      "inputs": [
        {
          "internalType": "address",
          "name": "user",
          "type": "address"
        }
      ],
      "name": "authorize",
      "outputs": [],
      "payable": false,
      "stateMutability": "nonpayable",
      "type": "function"
    },
    {
      "constant": false,
      "inputs": [
        {
          "internalType": "address",
          "name": "user",
          "type": "address"
        }
      ],
      "name": "unauthorize",
      "outputs": [],
      "payable": false,
      "stateMutability": "nonpayable",
      "type": "function"
    },
    {
      "constant": false,
      "inputs": [
        {
          "internalType": "string",
          "name": "name",
          "type": "string"
        },
        {
          "components": [
            {
              "internalType": "string",
              "name": "rate",
              "type": "string"
            },
            {
              "internalType": "string",
              "name": "timestamp",
              "type": "string"
            }
          ],
          "internalType": "struct Forex.Pair",
          "name": "pair",
          "type": "tuple"
        }
      ],
      "name": "set",
      "outputs": [],
      "payable": false,
      "stateMutability": "nonpayable",
      "type": "function"
    },
    {
      "constant": true,
      "inputs": [
        {
          "internalType": "string",
          "name": "name",
          "type": "string"
        }
      ],
      "name": "get",
      "outputs": [
        {
          "components": [
            {
              "internalType": "string",
              "name": "rate",
              "type": "string"
            },
            {
              "internalType": "string",
              "name": "timestamp",
              "type": "string"
            }
          ],
          "internalType": "struct Forex.Pair",
          "name": "",
          "type": "tuple"
        }
      ],
      "payable": false,
      "stateMutability": "view",
      "type": "function"
    }
  ],
  "bytecode": "0x608060405234801561001057600080fd5b50336000806101000a81548173ffffffffffffffffffffffffffffffffffffffff021916908373ffffffffffffffffffffffffffffffffffffffff160217905550610bbd806100606000396000f3fe608060405234801561001057600080fd5b50600436106100575760003560e01c8063693ec85e1461005c578063794e26311461008c5780638da5cb5b146100a8578063b6a5d7de146100c6578063f0b37c04146100e2575b600080fd5b610076600480360361007191908101906107c3565b6100fe565b60405161008391906109e9565b60405180910390f35b6100a660048036036100a19190810190610804565b61029b565b005b6100b06103a8565b6040516100bd9190610953565b60405180910390f35b6100e060048036036100db919081019061079a565b6103cd565b005b6100fc60048036036100f7919081019061079a565b6104b7565b005b6101066105a2565b60008260405160200161011991906109c7565b60405160208183030381529060405280519060200120905060026000828152602001908152602001600020604051806040016040529081600082018054600181600116156101000203166002900480601f0160208091040260200160405190810160405280929190818152602001828054600181600116156101000203166002900480156101e85780601f106101bd576101008083540402835291602001916101e8565b820191906000526020600020905b8154815290600101906020018083116101cb57829003601f168201915b50505050508152602001600182018054600181600116156101000203166002900480601f01602080910402602001604051908101604052809291908181526020018280546001816001161561010002031660029004801561028a5780601f1061025f5761010080835404028352916020019161028a565b820191906000526020600020905b81548152906001019060200180831161026d57829003601f168201915b505050505081525050915050919050565b600160003373ffffffffffffffffffffffffffffffffffffffff1673ffffffffffffffffffffffffffffffffffffffff16815260200190815260200160002060009054906101000a900460ff16156103a45760008260405160200161030091906109c7565b604051602081830303815290604052805190602001209050816002600083815260200190815260200160002060008201518160000190805190602001906103489291906105bc565b5060208201518160010190805190602001906103659291906105bc565b509050507f9a5587419bbe176e8391f06898d25f241100a906a603045f3d7484c9359e6d72818360405161039a929190610997565b60405180910390a1505b5050565b6000809054906101000a900473ffffffffffffffffffffffffffffffffffffffff1681565b6000809054906101000a900473ffffffffffffffffffffffffffffffffffffffff1673ffffffffffffffffffffffffffffffffffffffff163373ffffffffffffffffffffffffffffffffffffffff1614156104b45760018060008373ffffffffffffffffffffffffffffffffffffffff1673ffffffffffffffffffffffffffffffffffffffff16815260200190815260200160002060006101000a81548160ff0219169083151502179055507f71b03471b324bbcc7546b2626d0407dbb70a61e5e77c56214352d9c12893933f8160016040516104ab92919061096e565b60405180910390a15b50565b6000809054906101000a900473ffffffffffffffffffffffffffffffffffffffff1673ffffffffffffffffffffffffffffffffffffffff163373ffffffffffffffffffffffffffffffffffffffff16141561059f576000600160008373ffffffffffffffffffffffffffffffffffffffff1673ffffffffffffffffffffffffffffffffffffffff16815260200190815260200160002060006101000a81548160ff0219169083151502179055507f71b03471b324bbcc7546b2626d0407dbb70a61e5e77c56214352d9c12893933f81600060405161059692919061096e565b60405180910390a15b50565b604051806040016040528060608152602001606081525090565b828054600181600116156101000203166002900490600052602060002090601f016020900481019282601f106105fd57805160ff191683800117855561062b565b8280016001018555821561062b579182015b8281111561062a57825182559160200191906001019061060f565b5b509050610638919061063c565b5090565b61065e91905b8082111561065a576000816000905550600101610642565b5090565b90565b60008135905061067081610b63565b92915050565b600082601f83011261068757600080fd5b813561069a61069582610a38565b610a0b565b915080825260208301602083018583830111156106b657600080fd5b6106c1838284610b10565b50505092915050565b600082601f8301126106db57600080fd5b81356106ee6106e982610a64565b610a0b565b9150808252602083016020830185838301111561070a57600080fd5b610715838284610b10565b50505092915050565b60006040828403121561073057600080fd5b61073a6040610a0b565b9050600082013567ffffffffffffffff81111561075657600080fd5b61076284828501610676565b600083015250602082013567ffffffffffffffff81111561078257600080fd5b61078e84828501610676565b60208301525092915050565b6000602082840312156107ac57600080fd5b60006107ba84828501610661565b91505092915050565b6000602082840312156107d557600080fd5b600082013567ffffffffffffffff8111156107ef57600080fd5b6107fb848285016106ca565b91505092915050565b6000806040838503121561081757600080fd5b600083013567ffffffffffffffff81111561083157600080fd5b61083d858286016106ca565b925050602083013567ffffffffffffffff81111561085a57600080fd5b6108668582860161071e565b9150509250929050565b61087981610ac8565b82525050565b61088881610ada565b82525050565b61089781610ae6565b82525050565b60006108a882610a9b565b6108b28185610ab7565b93506108c2818560208601610b1f565b6108cb81610b52565b840191505092915050565b60006108e182610a90565b6108eb8185610aa6565b93506108fb818560208601610b1f565b61090481610b52565b840191505092915050565b6000604083016000830151848203600086015261092c82826108d6565b9150506020830151848203602086015261094682826108d6565b9150508091505092915050565b60006020820190506109686000830184610870565b92915050565b60006040820190506109836000830185610870565b610990602083018461087f565b9392505050565b60006040820190506109ac600083018561088e565b81810360208301526109be818461090f565b90509392505050565b600060208201905081810360008301526109e1818461089d565b905092915050565b60006020820190508181036000830152610a03818461090f565b905092915050565b6000604051905081810181811067ffffffffffffffff82111715610a2e57600080fd5b8060405250919050565b600067ffffffffffffffff821115610a4f57600080fd5b601f19601f8301169050602081019050919050565b600067ffffffffffffffff821115610a7b57600080fd5b601f19601f8301169050602081019050919050565b600081519050919050565b600081519050919050565b600082825260208201905092915050565b600082825260208201905092915050565b6000610ad382610af0565b9050919050565b60008115159050919050565b6000819050919050565b600073ffffffffffffffffffffffffffffffffffffffff82169050919050565b82818337600083830152505050565b60005b83811015610b3d578082015181840152602081019050610b22565b83811115610b4c576000848401525b50505050565b6000601f19601f8301169050919050565b610b6c81610ac8565b8114610b7757600080fd5b5056fea365627a7a723158205ef8d412f969cc90946d6a063edb80ad9f987450535f10f4b69daa706b700e366c6578706572696d656e74616cf564736f6c63430005100040",
  "source": "// SPDX-License-Identifier: MIT\npragma solidity >=0.4.21 <0.7.0;\n\npragma experimental ABIEncoderV2;\n\ncontract Forex {\n\n    address public owner;\n\n    struct Pair {\n        string rate;\n        string timestamp;\n    }\n\n    mapping(address => bool) users;\n    mapping(bytes32 => Pair) pairs;\n\n    event Authorization(address _user, bool _authorized);\n    event Settlement(bytes32 _nameHash, Pair _pair);\n\n    constructor() public {\n        owner = msg.sender;\n    }\n\n    modifier restricted() {\n        if (msg.sender == owner) _;\n    }\n\n    modifier authorized() {\n        if (users[msg.sender]) _;\n    }\n\n    function authorize(address user) public restricted {\n        users[user] = true;\n        emit Authorization(user, true);\n    }\n\n    function unauthorize(address user) public restricted {\n        users[user] = false;\n        emit Authorization(user, false);\n    }\n\n    function set(string memory name, Pair memory pair) public authorized {\n\n        bytes32 nameHash = keccak256(abi.encode(name));\n        pairs[nameHash] = pair;\n        emit Settlement(nameHash, pair);\n    }\n\n    function get(string memory name) public view returns (Pair memory) {\n\n        bytes32 nameHash = keccak256(abi.encode(name));\n        return pairs[nameHash];\n    }\n}\n",
  "sourcePath": "/home/arsalen/Desktop/ethereum-oracle-api-dapp/eth-sample-dapp/contracts/Forex.sol",
  "compiler": {
    "name": "solc",
    "version": "0.5.16+commit.9c3226ce.Emscripten.clang"
  },
  "schemaVersion": "3.2.2",
  "updatedAt": "2020-08-08T00:28:20.126Z",
  "networkType": "ethereum",
  "devdoc": {
    "methods": {}
  },
  "userdoc": {
    "methods": {}
  }
}